:100000000C9464000C948C000C948C000C948C0068
:100010000C948C000C948C000C948C000C94DB08D9
:100020000C948C000C948C000C948C000C948C0020
:100030000C948C000C948C000C948C000C948C0010
:100040000C9491080C948C000C945D090C94370965
:100050000C948C000C948C000C948C000C948C00F0
:100060000C948C000C948C000200000000230026ED
:1000700000290000000000240027002A00000000E2
:1000800000250028002B00040404040404040402D6
:100090000202020202030303030303010204081025
:1000A00020408001020408102001020408102000F2
:1000B0000000080002010000030407000000000027
:1000C000000000008F09540B11241FBECFEFD8E0B1
:1000D000DEBFCDBF22E0A6ECB1E001C01D92A23A86
:1000E000B207E1F711E0A0E0B1E0E8E9FCE102C00D
:1000F00005900D92A63CB107D9F710E0C3E6D0E019
:1001000004C02197FE010E94140CC236D107C9F722
:100110000E94C7090C943F0E0C940000833081F0BC
:1001200028F4813099F08230A9F008958730A9F041
:100130008830C9F08430B1F4809180008F7D03C095
:10014000809180008F7780938000089584B58F77A9
:1001500084BD089584B58F7DFBCF8091B0008F77EB
:100160008093B00008958091B0008F7DF9CF1F93E8
:10017000CF93DF93282F30E0F901E155FF4F8491B1
:10018000F901E556FF4FD491F901E957FF4FC491AA
:10019000CC23A9F0162F81110E948E00EC2FF0E0E5
:1001A000EE0FFF1FE358FF4FA591B4918FB7F8945E
:1001B000EC91111108C0D095DE23DC938FBFDF9145
:1001C000CF911F910895DE2BF8CFCF93DF9390E06E
:1001D000FC01E556FF4F249189579F4FFC01849104
:1001E0008823D1F090E0880F991FFC01ED58FF4F54
:1001F000A591B491FC01E358FF4FC591D4916111D1
:100200000EC09FB7F8948C91E22FE0958E238C93CB
:100210002881E223E8839FBFDF91CF9108958FB7B4
:10022000F894EC91E22BEC938FBFF6CF0895909168
:10023000000189130BC0E8E6F0E0E4919FEF909392
:100240000001E13049F028F0E23061F060E00C9408
:10025000B70010926E00FACF90916F009D7F90933F
:100260006F00F4CF909170009D7F9093700091E0AB
:100270009093B0009091B100987F94609093B100FA
:100280001092B300E3CF4F925F926F927F928F9262
:100290009F92AF92BF92CF92DF92EF92FF920F9315
:1002A0001F93CF93DF9300D000D01F92CDB7DEB75E
:1002B0008B0129013A01909100018917C9F09F3FF4
:1002C00009F47EC00F900F900F900F900F90DF9168
:1002D000CF911F910F91FF90EF90DF90CF90BF9043
:1002E000AF909F908F907F906F905F904F90089508
:1002F000E8E6F0E094919D8397FDE4CF61E00E94F1
:10030000E5008D81882321F09D81923009F04AC15A
:100310004801B12CA12C60E072E18AE790E0A501D0
:1003200098010E94F50B29833A834B835C83690112
:100330007A0181E0C81AD108E108F1089FEFC916D7
:10034000D104E104F10409F00CF401C160E472E4A9
:100350008FE090E0A50198010E94F50B69017A01F8
:1003600081E0C81AD108E108F1089D81923009F0B6
:10037000A2C08FEFC816D104E104F10409F00CF417
:10038000E6C160E970ED83E090E0A50198010E946C
:10039000F50B69017A0191E0C91AD108E108F10869
:1003A0008FEFC816D104E104F10411F00CF07FC105
:1003B00083E09091B100987F892B8093B100CFC0EA
:1003C00080930001E8E6F0E094919D839F3F09F45B
:1003D00079CF913041F150F0923009F446C09D81BF
:1003E00097FD70CF61E00E94E5008ECF14BC15BC74
:1003F00094B5926094BD95B5916095BD282F30E07D
:10040000F901E957FF4FE491F0E0EE0FFF1FE358C9
:10041000FF4F45915491F901E556FF4FE491E09368
:10042000C7011D826BCF10928000109281009091C5
:1004300081009860909381009091810091609093E9
:100440008100282F30E0F901E957FF4FE491F0E0F7
:10045000EE0FFF1FE358FF4F45915491F901E55608
:10046000FF4FE491E093C60149CF1092B000109283
:10047000B1009091B00092609093B0009091B10063
:1004800091609093B100282F30E0F901E957FF4FB8
:10049000E491F0E0EE0FFF1FE358FF4F45915491B8
:1004A0005093D1014093D001F901E556FF4FE491FB
:1004B000E093D20123CF9FEFC916D104E104F104E8
:1004C00009F00CF46DC068E478EE81E090E0A501DD
:1004D00098010E94F50B69017A0181E0C81AD108E0
:1004E000E108F1089D81992309F4FAC08FEFC8163D
:1004F000D104E104F10411F00CF0FBC0EFC064E2A0
:1005000074EF80E090E0A50194010E94F50B690171
:100510007A0181E0C81AD108E108F10885E09FEF6F
:10052000C916D104E104F10409F008F442CF62E1F4
:100530007AE780E090E0A50194010E94F50B690143
:100540007A0181E0C81AD108E108F108E5C081E02C
:100550009D8191112ECF95B5987F892B85BD2FEF69
:100560003FEFA901411451046104710409F043C033
:100570009D81913009F45EC0923009F46DC09111F3
:10058000A1CEC7BC2093CC013093CD014093CE01C6
:100590005093CF0180916E00826080936E0092CE66
:1005A00082E0D6CFB12CA12C60E072E18AE790E026
:1005B000A50198010E94F50B69017A0181E0C81A32
:1005C000D108E108F108C114D10491E0E906F10471
:1005D00004F591E08D81813011F680918100887F52
:1005E000892B809381002FEF3FEFA9014114510423
:1005F00061047104F9F0D801AA0FBB1FA301920195
:100600000E94820B28EE33E040E050E00E94D30BC2
:10061000AFCF68E478EE81E090E0A50198010E94F8
:10062000F50B69017A0181E0C81AD108E108F108E7
:1006300093E0D0CFD0928900C09288002093C80167
:100640003093C9014093CA015093CB0180916F0050
:10065000826080936F0036CEC092B3002093D301A6
:100660003093D4014093D5015093D601809170000E
:1006700082608093700026CE84E09FEFC916D1047B
:10068000E104F10409F008F466CFC980DA80EB8058
:10069000FC808AE0F594E794D794C7948A95D1F7C3
:1006A00081E0C81AD108E108F10885E054CF68E478
:1006B00078EE81E090E0A50198010E94F50B6901B8
:1006C0007A0181E0C81AD108E108F1089FEFC91644
:1006D000D104E104F10411F00CF011CF84E069CEF3
:1006E00083E09FEFC916D104E104F10409F00CF492
:1006F00032CF62E17AE780E090E0A50194010E94A8
:10070000F50B69017A0181E0C81AD108E108F10806
:100710009D81992309F4B0CF86E09FEFC916D104DB
:10072000E104F10409F008F444CEC980DA80EB80DA
:10073000FC809AE0F594E794D794C7949A95D1F702
:1007400081E0C81AD108E108F10887E032CE82E0E2
:1007500030CEAF92BF92CF92DF92EF92FF920F9383
:100760001F93CF93DF936C017B018B01040F151F47
:10077000EB015E01AE18BF08C017D10759F06991AF
:10078000D601ED91FC910190F081E02DC601099513
:10079000892B79F7C501DF91CF911F910F91FF90C0
:1007A000EF90DF90CF90BF90AF900895FC01538DF4
:1007B000448D252F30E0842F90E0821B930B54173B
:1007C00010F0CF96089501970895FC01918D828DC8
:1007D000981761F0A28DAE0FBF2FB11D5D968C9161
:1007E000928D9F5F9F73928F90E008958FEF9FEFA0
:1007F0000895FC01918D828D981731F0828DE80F5C
:10080000F11D858D90E008958FEF9FEF0895FC0115
:10081000918D228D892F90E0805C9F4F821B9109E2
:100820008F739927089585EF91E00E94070421E0D6
:10083000892B09F420E0822F0895FC01A48DA80FD4
:10084000B92FB11DA35ABF4F2C91848D90E0019612
:100850008F739927848FA689B7892C93A089B18932
:100860008C91837080648C93938D848D981306C0D3
:100870000288F389E02D80818F7D80830895EF9237
:10088000FF920F931F93CF93DF93EC0181E0888F4A
:100890009B8D8C8D98131AC0E889F989808185FF1A
:1008A00015C09FB7F894EE89FF896083E889F989BC
:1008B00080818370806480839FBF81E090E0DF91BE
:1008C000CF911F910F91FF90EF900895F62E0B8D11
:1008D00010E00F5F1F4F0F731127E02E8C8D8E11CC
:1008E0000CC00FB607FCFACFE889F989808185FF33
:1008F000F5CFCE010E941D04F1CFEB8DEC0FFD2F43
:10090000F11DE35AFF4FF0829FB7F8940B8FEA89ED
:10091000FB8980818062CFCFCF93DF93EC01888DFC
:100920008823B9F0AA89BB89E889F9898C9185FD6A
:1009300003C0808186FD0DC00FB607FCF7CF8C91F8
:1009400085FFF2CF808185FFEDCFCE010E941D048F
:10095000E9CFDF91CF91089580E008958F929F9223
:10096000AF92BF920F931F93CF93DF93CDB7DEB7B4
:10097000A1970FB6F894DEBF0FBECDBF19A24230CB
:1009800008F44AE08E010F5D1F4F842E912CB12C8C
:10099000A12CA50194010E94D30BE62FB901CA0135
:1009A000EA3044F5E05DD801EE938D01232B242B32
:1009B000252B79F790E080E0109769F0FD01019018
:1009C0000020E9F73197AF014A1B5B0BBD0185EFB2
:1009D00091E00E94A903A1960FB6F894DEBF0FBE66
:1009E000CDBFDF91CF911F910F91BF90AF909F909E
:1009F0008F900895E95CD7CFCF92DF92EF92FF926C
:100A0000CF93DF9397FF1BC06B017C016DE285EFF5
:100A100091E00E943F04EC0166277727CB016C1917
:100A20007D098E099F094AE00E94AE048C0F9D1F2C
:100A3000DF91CF91FF90EF90DF90CF9008954AE043
:100A4000DF91CF91FF90EF90DF90CF900C94AE04A8
:100A5000FC0101900020E9F73197AF01481B590BC9
:100A6000BC0185EF91E00C94A9030E945C0B0E96EB
:100A7000FC01E952FE4F1082FC01EE0FFF1FEF5FF9
:100A8000FE4F2FEF3FEF3183208361E00E94E500AE
:100A900081E008950E945C0B0E96FC01E952FE4F26
:100AA00021E02083FC01EE0FFF1FEF5FFE4F2FEFD1
:100AB0003FEF3183208360E00E94E50081E00895EC
:100AC0000E945C0BFC01E952FE4F1082FC01EE0F0C
:100AD000FF1FEF5FFE4F2FEF3FEF3183208361E079
:100AE0000E94E50081E008950E945C0BFC01E95240
:100AF000FE4F21E02083FC01EE0FFF1FEF5FFE4F52
:100B00002FEF3FEF3183208360E00E94E50081E01A
:100B100008950E945C0B0E94170181E00895FC017A
:100B200080819181009711F00C94B60C08950F9379
:100B30001F93CF93DF93EC0188819981009759F03F
:100B40002A813B812617370730F081E0DF91CF9172
:100B50001F910F9108958B016F5F7F4F0E943F0D92
:100B6000009759F0998388831B830A832C813D81E8
:100B7000232B59F7FC011082E8CF80E0E7CFEF92FA
:100B8000FF920F931F93CF93DF93EC017B018A01B8
:100B9000BA010E94970528813981811114C021155D
:100BA000310519F0C9010E94B60C198218821D8204
:100BB0001C821B821A82CE01DF91CF911F910F916F
:100BC000FF90EF9008951D830C83B701C9010E9427
:100BD000100EF1CFFB0101900020E9F73197AF0132
:100BE000461B570B0C94BF051F93CF93DF93EC016B
:100BF000162F8FE691E00E9428058CE691E01123E4
:100C000011F089E691E00E9428058BE791E00E94AF
:100C10002805BE01DD0F880B990B0E94FC04809112
:100C2000960290919702892BB1F080E891E00E94A2
:100C3000280540919602509197026091920270911E
:100C4000930285EF91E00E94A90361E871E082E9D7
:100C500092E00E94EA056AE085EF91E00E943F047D
:100C600085EF91E0DF91CF911F910C948C04AF92AE
:100C7000BF92CF92DF92EF92FF920F931F93CF9389
:100C8000DF93EC015B016A0179012417350720F439
:100C90008D2D6901E42EF82E198218821B821A828A
:100CA0001D821C8250E040E061E871E0CE010E94AC
:100CB000BF05D50114960D911C91C016D106E8F41C
:100CC000E016F10608F48701D501ED91FC9111972A
:100CD000E00FF11FF08010826D917C916C0D7D1DF5
:100CE00061157105B1F0CE010E94EA05F501808120
:100CF0009181080F191FD801FC92CE01DF91CF918D
:100D00001F910F91FF90EF90DF90CF90BF90AF9029
:100D1000089588819981009711F00E94B60C19827C
:100D200018821D821C821B821A82E0CFFC01118274
:100D3000108213821282158214826115710551F09E
:100D4000FB0101900020E9F73197AF01461B570BDB
:100D50000C94BF050895FF920F931F93CF93DF93D9
:100D600000D0CDB7DEB7FF24F39485EF91E00E9469
:100D70000704892B81F18091EB0181112CC085EF53
:100D800091E00E94E5038A3019F4F092EB01EDCF77
:100D900089831A8200919C0210919D020F5F1F4F60
:100DA000B80188E992E00E9497058823F1F220912A
:100DB00098023091990280919C0290919D02BE010F
:100DC0006F5F7F4F820F931F0E94100E10939D0242
:100DD00000939C02CACF0F900F90DF91CF911F918B
:100DE0000F91FF9008950E94130481110C94AB069B
:100DF00008950F931F93CF93DF93CDB7DEB76E9710
:100E00000FB6F894DEBF0FBECDBF8B01BC01CE0183
:100E10000D960E9496060F3F100749F1980150E089
:100E200040E0BE01635F7F4FCE0101960E9437060E
:100E30008D859E85009709F487C069817A81611547
:100E4000710509F47FC04F8558892D813E81421775
:100E5000530708F477C00E94100E8D819E819A8BF3
:100E6000898B1E821D82CE0101960E948F05898981
:100E70009A89892B09F479C00D851E856FE270E08F
:100E8000C8010E94050E009709F46FC09C01201B49
:100E9000310B8901980150E040E0BE01635F7F4F54
:100EA000CE0143960E94370629893A89A8014F5FEF
:100EB0005F4FBE01635F7F4FCE0149960E943706A8
:100EC00018861F821A8619861C861B86698D7A8D64
:100ED0006115710531F04D8D5E8DCE0107960E9432
:100EE000BF051A8219821C821B821E821D826B8999
:100EF0007C896115710531F04F89588DCE010196BD
:100F00000E94BF05CE0101960E948F05CE01079673
:100F10000E948F05CE0149960E948F05CE0143960F
:100F20000E948F05CE010D960E948F0580E06E967F
:100F30000FB6F894DEBF0FBECDBFDF91CF911F91EA
:100F40000F9108950E94B60C89819A819E878D87A2
:100F50008B819C81988B8F878D819E819A8B898BC9
:100F60001A8219821C821B827CCF0FEF1FEF92CF57
:100F7000EF92FF920F931F93CF93DF938C016FE259
:100F800070E00E94050E009769F1EC0121966FE276
:100F900070E0CE010E94050E7C01892B19F1C80179
:100FA0000E945C0B182FCE010E945C0BEC01C70164
:100FB00001960E945C0B8F3F980779F420E030E0A7
:100FC000A901BE01812F0E94430181E0DF91CF91F1
:100FD0001F910F91FF90EF9008959C01990F440B82
:100FE000550BEFCF80E0F2CF0F931F93CF93DF939A
:100FF000EC016FE270E00E94050E8C0180E00115AB
:101000001105B1F0CE010E945C0BC82FC8010196FA
:101010000E945C0B8C0161E08C2F0E94E50061E076
:101020000130110509F060E08C2F0E94B70081E0CB
:10103000DF91CF911F910F9108950F931F93CF933D
:10104000DF938C016FE270E00E94050EEC0180E0FE
:10105000209709F442C0C8010E945C0B8C01CE01AC
:1010600001960E945C0BEC0161E0802F0E94E5007C
:1010700061E0802F0E94E500209729F460E0802F36
:101080000E94B70029C0CF3FD10511F461E0F7CF2E
:10109000F801FF27E155FF4FE491E33041F140F4BF
:1010A000E130B1F0E230F1F0C038D1057CF7E6CFA5
:1010B000E73039F1E83069F1E430B1F78091800030
:1010C000806280938000D0938B00C0938A0004C01C
:1010D00084B5806884BDC7BD81E0DF91CF911F9149
:1010E0000F91089584B5806284BDC8BDF5CF80910D
:1010F0008000806880938000D0938900C09388002E
:10110000EBCF8091B00080688093B000C093B300B3
:10111000E3CF8091B00080628093B000C093B400B0
:10112000DBCF1F920F920FB60F9211242F933F9394
:101130008F939F93AF93BF938091F1019091F201B0
:10114000A091F301B091F4013091F00123E0230F5D
:101150002D3758F50196A11DB11D2093F001809304
:10116000F1019093F201A093F301B093F401809107
:10117000EC019091ED01A091EE01B091EF0101968B
:10118000A11DB11D8093EC019093ED01A093EE01A0
:10119000B093EF01BF91AF919F918F913F912F91AC
:1011A0000F900FBE0F901F90189526E8230F029600
:1011B000A11DB11DD2CF1F920F920FB60F92112415
:1011C0002F933F934F935F936F937F938F939F934F
:1011D000AF93BF93EF93FF938091D3019091D4018C
:1011E000A091D501B091D601892B8A2B8B2BD1F1FF
:1011F0009091D201E091D001F091D10180818927B5
:1012000080838091D3019091D401A091D501B091B8
:10121000D601181619061A061B069CF48091D301F4
:101220009091D401A091D501B091D6010197A10967
:10123000B1098093D3019093D401A093D501B093C9
:10124000D601FF91EF91BF91AF919F918F917F91C7
:101250006F915F914F913F912F910F900FBE0F9023
:101260001F901895809100010E941701EACF1F92EC
:101270000F920FB60F9211242F933F934F935F93CA
:101280006F937F938F939F93AF93BF93EF93FF934E
:1012900085EF91E00E941D04FF91EF91BF91AF9106
:1012A0009F918F917F916F915F914F913F912F917E
:1012B0000F900FBE0F901F9018951F920F920FB6B0
:1012C0000F9211242F938F939F93EF93FF93E091AD
:1012D0000502F09106028081E0910B02F0910C0270
:1012E00082FD1BC0908180910E028F5F8F732091D1
:1012F0000F02821741F0E0910E02F0E0EB50FE4F3A
:10130000958F80930E02FF91EF919F918F912F9176
:101310000F900FBE0F901F9018958081F4CFE5EFCE
:10132000F1E01382128288EE93E0A0E0B0E08483C3
:101330009583A683B7838BE591E09183808385ECC9
:1013400090E09587848784EC90E09787868780EC8F
:1013500090E0918B808B81EC90E0938B828B82EC80
:1013600090E0958B848B86EC90E0978B868B118E2A
:10137000128E138E148E61E871E088E992E00E946B
:10138000960661E871E082E992E00C949606789402
:1013900084B5826084BD84B5816084BD85B582607A
:1013A00085BD85B5816085BD80916E00816080932B
:1013B0006E00109281008091810082608093810094
:1013C00080918100816080938100809180008160A4
:1013D000809380008091B10084608093B1008091FF
:1013E000B00081608093B00080917A008460809327
:1013F0007A0080917A00826080937A0080917A00EE
:10140000816080937A0080917A00806880937A006E
:101410001092C100E0910502F091060282E0808303
:10142000E0910102F09102021082E0910302F0913A
:10143000040280E1808310920D02E0910902F09194
:101440000A0286E08083E0910702F0910802808121
:1014500080618083E0910702F091080280818860BA
:101460008083E0910702F091080280818068808388
:10147000E0910702F091080280818F7D808361E016
:1014800090E080E00E94F405C2E061E08C2F0E94B1
:10149000E50060E08C2F0E94B700CF5FCE30A9F747
:1014A0008091EB01882309F44EC0009198021091BD
:1014B000990246E050E06CE871E0C8010E94170E06
:1014C000892BC9F50A5F1F4F6BE771E0C8010E94C5
:1014D000250E6C014FE2E42E41E0F42ED7016D9110
:1014E0007C91EB0109900020E9F72197C61BD70BEF
:1014F000AE01C8010E94170E892B09F09CC0CE01D5
:101500000196800F911FD7011296ED91FC91B601C3
:10151000681B790BC114D10411F46FEF7FEF0995AB
:10152000C82FC114D10439F0C60104960E945C0B87
:101530006C2F0E94F40561E871E088E992E00E9456
:10154000EA051092EB0127EDC22E21E0D22E31E008
:10155000E32E31E0F32E10E000E0D0E0C0E0D60151
:101560008D916D01882309F459C00E3011050CF4DA
:1015700076C084E090E070E060E02C2F277020645B
:1015800020937C0030917A00306430937A0030915F
:101590007A0036FDFCCF4091780050917900640FBD
:1015A000751F019769F777FF02C06D5F7F4F5B0181
:1015B000B594A794B594A794F701808191818A1579
:1015C0009B0561F1B182A0828CE891E00E94280520
:1015D00087E891E00E30110514F082E891E00E9456
:1015E000280581E991E00E942805BE01DD0F880BE6
:1015F000990B0E94FC0481E991E00E942805B50145
:10160000BB0C880B990B0E94FC046AE085EF91E00B
:101610000E943F0485EF91E00E948C040F5F1F4FF2
:101620000431110599F40E941304882309F438CF7A
:101630000E94AB0635CFB4E0EB0EF11CE7E5EE16E9
:10164000E1E0FE0609F04ACFC0E06BCFE8010E30C2
:1016500011050CF02E97F2E0EF0EF11C80CFFE0189
:10166000E155FF4F8491FE01E556FF4FB490FE0116
:10167000E957FF4FA490AA20A1F081110E948E008B
:10168000EA2DF0E0EE0FFF1FE759FF4FA591B4914F
:10169000EC91BE2291E080E009F490E0A92EB82EF2
:1016A0008BCFB12CA12C88CF82E992E00E948F05CC
:1016B00088E992E00C948F05FC0188279927E8942B
:1016C00021912032E9F3293010F02E30C8F32B326B
:1016D00041F02D3239F4689404C00E947A0B820FD5
:1016E000911D219120532A30C0F31EF490958195CD
:1016F0009F4F08957AE0979F902D879F802D910DA1
:10170000112408950E94C40BA59F900DB49F900DC5
:10171000A49F800D911D112408952F923F924F9206
:101720005F926F927F928F929F92AF92BF92CF9271
:10173000DF92EF92FF920F931F93CF93DF93CDB77A
:10174000DEB7CA1BDB0B0FB6F894DEBF0FBECDBFF2
:1017500009942A88398848885F846E847D848C84C3
:101760009B84AA84B984C884DF80EE80FD800C81CC
:101770001B81AA81B981CE0FD11D0FB6F894DEBFAF
:101780000FBECDBFED010895A29FB001B39FC00170
:10179000A39F700D811D1124911DB29F700D811D9D
:1017A0001124911D0895A1E21A2EAA1BBB1BFD0155
:1017B0000DC0AA1FBB1FEE1FFF1FA217B307E40730
:1017C000F50720F0A21BB30BE40BF50B661F771F88
:1017D000881F991F1A9469F7609570958095909568
:1017E0009B01AC01BD01CF010895052E97FB1EF4AE
:1017F00000940E940C0C57FD07D00E94D30B07FCED
:1018000003D04EF40C940C0C5095409530952195D6
:101810003F4F4F4F5F4F089590958095709561951C
:101820007F4F8F4F9F4F0895EE0FFF1F0590F4914C
:10183000E02D09940F931F93CF93DF93823091058E
:1018400010F482E090E0E091A002F091A10230E07B
:1018500020E0B0E0A0E0309799F42115310509F4BB
:101860004AC0281B390B24303105D8F58A819B8169
:101870006115710589F1FB0193838283FE0111C01B
:10188000408151810281138148175907E0F04817C0
:10189000590799F4109761F012960C9312971396CA
:1018A0001C933296CF01DF91CF911F910F91089534
:1018B0000093A0021093A102F4CF2115310551F03D
:1018C0004217530738F0A901DB019A01BD01DF017E
:1018D000F801C1CFEF01F9CF9093A1028093A0024C
:1018E000CDCFFE01E20FF31F819391932250310976
:1018F00039832883D7CF20919E0230919F02232BDA
:1019000041F420912B0130912C0130939F022093C0
:101910009E022091290130912A012115310541F4BF
:101920002DB73EB740912D0150912E01241B350B50
:10193000E0919E02F0919F02E217F307A0F42E1BA4
:101940003F0B2817390778F0AC014E5F5F4F241723
:10195000350748F04E0F5F1F50939F0240939E0241
:10196000819391939FCFF0E0E0E09CCFCF93DF9302
:101970000097E9F0FC01329713821282A091A00235
:10198000B091A102ED0130E020E01097A1F4208198
:101990003181820F931F20919E0230919F02281760
:1019A000390709F061C0F0939F02E0939E02DF9136
:1019B000CF910895EA01CE17DF07E8F54A815B81F0
:1019C0009E0141155105B1F7E901FB83EA83499175
:1019D0005991C40FD51FEC17FD0761F480819181E7
:1019E0000296840F951FE9019983888382819381F0
:1019F0009B838A83F0E0E0E012968D919C9113978F
:101A00000097B9F52D913C911197CD010296820F67
:101A1000931F20919E0230919F022817390739F6B3
:101A2000309751F51092A1021092A002B0939F023C
:101A3000A0939E02BCCFD383C28340815181840F87
:101A4000951FC817D90761F44E5F5F4F8881998150
:101A5000480F591F518340838A819B8193838283DE
:101A60002115310509F0B0CFF093A102E093A00257
:101A70009ECFFD01DC01C0CF13821282D7CFB0E030
:101A8000A0E0E5E4FDE00C948F0B8C01009751F48D
:101A9000CB010E941A0C8C01C801CDB7DEB7E0E182
:101AA0000C94AB0BFC01E60FF71F9C01225031098F
:101AB000E217F30708F49DC0D901CD91DC9111978D
:101AC000C617D70798F0C530D10530F3CE0104977B
:101AD0008617970708F3C61BD70B2297C193D1939C
:101AE0006D937C93CF010E94B60CD6CF5B01AC1AEC
:101AF000BD0A4C018C0E9D1EA091A002B091A102C6
:101B0000512C412CF12CE12C109731F580919E0243
:101B100090919F028815990509F05CC046165706FA
:101B200008F058C08091290190912A01009741F452
:101B30008DB79EB740912D0150912E01841B950BBE
:101B4000E817F90708F055C0F0939F02E0939E0252
:101B5000F90171836083A0CF8D919C9111971296AA
:101B60006C90129713967C901397A815B90559F5A8
:101B70006C0142E0C40ED11CCA14DB0420F1AC019C
:101B80004A195B09DA011296159780F06282738216
:101B900051834083D9016D937C93E114F10471F07A
:101BA000D7011396FC93EE93129776CF22968C0F63
:101BB0009D1FF90191838083F301EFCFF093A10280
:101BC000E093A00269CF4816590608F42C017D0164
:101BD000D3019ACFCB010E941A0C7C01009749F0E7
:101BE000AE01B8010E94FC0DC8010E94B60C87012D
:101BF00053CF10E000E050CFFB01DC0102C00190A8
:101C00000D9241505040D8F70895FC0181918617FC
:101C100021F08823D9F7992708953197CF010895A6
:101C2000FB01DC0101900D920020E1F70895FB011A
:101C3000DC014150504030F08D910190801919F431
:101C40000020B9F7881B990B0895FB01519155238A
:101C5000A9F0BF01DC014D9145174111E1F759F49D
:101C6000CD010190002049F04D9140154111C9F37B
:101C7000FB014111EFCF81E090E00197089510E062
:101C8000C3E6D0E004C0FE010E94140C2196C436C5
:081C9000D107C9F7F894FFCF5A
:101C9800FFFFFF000000000000000000000000003F
:101CA800000000000000000000000000000000002C
:101CB8000000000000000000000000A20280009365
:101CC80001AC0498011D089D01F407A201B807A7FB
:101CD800018905AC017405B1016005B6014A05BB6F
:101CE800013505C001F906000000003F04A903D62C
:101CF800038C040704E503F9036F6B006B6F006145
:101D08006C703A2F2F72706C792F003F69643D0018
:101D1800260061726564006472656400616C703AE3
:101D28002F2F006B707273007070696E0070707383
:101D38007700746F6E65006E6F746E0073726C64FA
:101D48000073706C640073726C610073706C610076
:061D5800637573740000C6
:00000001FF
